:0400000055EF00F0C8
:100008005A02310237023D025A025A025A025A0271
:100018005A025A025A025A025A025A025A025A02F8
:100028005A025A025A025A025A025A025A025A02E8
:100038005A025A025A025A0258025A025A025A02DA
:100048005A025A025A025A025A025A025A025A02C8
:100058005A025A025A025A025A025A025A025A02B8
:100068005A025A025A025A025A025A025A025A02A8
:100078005A025A025A025A025A025A025A022A00CA
:100088005A025A025A025A025A022A002A002A001E
:100098005A025A025A025A025A025A025A025A0278
:1000A800FF00F1EF03F0810E556EFC0E566EBEECAC
:1000B80003F0060E556EFF0E566EBEEC03F0300EC2
:1000C800556EFE0E566EBEEC03F0060E556EFF0E14
:1000D800566EBEEC03F0150E556EF70E566EBEEC5E
:1000E80003F0800E556EF70E566EBEEC03F0D40E7C
:1000F800556EF50E566EBEEC03F0AA0E556EF60E52
:10010800566EBEEC03F0C10E556EF80E566EBEEC80
:1001180003F02C0E556EF90E566EBEEC03F06D0E04
:10012800556EFA0E566EBEEC03F0430E556EFB0E7E
:10013800566EBEEC03F0AE0E556EFB0E566EBEEC60
:1001480003F0D80E556EFA0E566EBEEC03F0970EFD
:10015800556EF90E566EBEEC03F0020E556EFA0E91
:10016800566EBEEC03F0560E556EF80E566EBEEC8B
:1001780003F0EB0E556EF70E566EBEEC03F03F0E15
:10018800556EF60E566EBEEC03F0690E556EF50E02
:10019800566EBEEC03F0060E556EFF0E566EBEECA4
:1001A80003F0190E556EFC0E566EBEEC03F0EF0E02
:1001B800556EFC0E566EBEEC03F0840E556EFC0EAA
:1001C800566EBEEC03F05A0E556EFD0E566EBEEC22
:1001D80003F09B0E556EFE0E566EBEEC03F0190E24
:1001E800556EFC0E566EBEEC03F0C50E556EFD0E38
:1001F800566EBEEC03F0190E556EFC0E566EBEEC34
:1002080003F0060E556EFF0E566EBEEC03F012009C
:1002180040504110D8B413EF01F015EF01F01EEF74
:1002280001F040504110D8A41CEF01F01EEF01F07E
:1002380023EF01F03E500FEC04F070EF01F020EED8
:100248000AF04050D9264150DA22DE50DE10D8B4E8
:1002580030EF01F032EF01F04DEF01F020EE0AF03F
:100268004050D9264150DA2210EE03F04050E126E2
:100278004150E222DE50E65CE650800A466EDE50CF
:10028800800A4658D8B04BEF01F04DEF01F070EFFF
:1002980001F020EE03F04050D9264150DA22DEC4A6
:1002A80042F5DDC443F540C5D9F441C5DAF4DEC4EE
:1002B80044F5DDC445F542504424D96E43504520E9
:1002C800DA6E3EC5DFF420EE03F04050D9264150E7
:1002D800DA22DE2A000EDD221200000E936E000ED6
:1002E800946E000E956E370E8D6EE00E8E6E6B0E50
:1002F8008F6E330E0401166F800E206F480E2A6F22
:10030800040E176F000E216F000E2B6F000E186F72
:10031800000E226F000E2C6F370E196FE00E236F40
:10032800FB0E2D6F3F0E1A6FE00E246FFB0E2E6F23
:10033800200E0301126F200E136F000E156F000EB2
:10034800166F200E0F6F200E106F150EA26F130E72
:100358002D6F000E04011B6F000E1C6F000E1D6F29
:10036800000E576F000E586F000E596F000E256F64
:10037800000E266F000E276F000E2F6F000E306FD5
:10038800000E316F1200596EEEEF01F0000E356E5F
:10039800E00E556EFF0E566EBEEC03F008EF02F04D
:1003A800958E010E356EAF0E556EFF0E566EBEEC75
:1003B80003F008EF02F0958E020E356E710E556E41
:1003C800FF0E566EBEEC03F008EF02F057EC00F09B
:1003D80008EF02F059500501606F616B6151000A26
:1003E800D8B4F9EF01F0EAEF01F06051310AD8B45E
:1003F800CAEF01F0030AD8B4D4EF01F0010AD8B467
:10040800DFEF01F0EAEF01F0120049C5D9F44AC55F
:10041800DAF4DEC4F6F4DDC4F7F4F86A0800F5503F
:10042800250AD8A41AEF02F01CEF02F034EF02F00C
:1004380049C5D9F44AC5DAF4DE2A000EDD22000ED9
:10044800226E000E216E21C533F52368246849C544
:10045800D9F44AC5DAF4DE2A000EDD2249EF02F0AB
:1004680049C5D9F44AC5DAF4DEC4F6F4DDC4F7F4B4
:10047800F86A0800F5503E6E3F6A47C540F548C522
:1004880041F50CEC01F02BEF02F01200000E010117
:10049800AF6F000EB06F000EB16F000EB26F000E9E
:1004A800B36F000EB46F000EB56F000EB66F000E7E
:1004B800B76F000EB86FB00EB96F800EBA6F080E26
:1004C800BB6F8A0EBC6F000EBD6F200EBE6F000E94
:1004D800C06F800EC16F000EC26F000E3C6E000E22
:1004E8003D6E48EC04F0000E3C6E000E3D6E3AEC9A
:1004F80004F0000E3C6E000E3D6E2CEC04F0000E75
:100508002C6E000E2B6E1200618A000E61BE010E69
:100518003E6E619E550E606EAA0E606E6090000E73
:10052800686E000E676E080E666E550E606EAA0E37
:10053800606E60803EB002D0619E01D0618E80887E
:10054800699261806C0E3C6E090E3D6EA4EC04F05D
:10055800699461826E0E3C6E090E3D6E9FEC04F04C
:1005680069966184700E3C6E090E3D6E9AEC04F03B
:1005780012004FC553F550C554F5D1EF02F04DC5E3
:1005880047F54EC548F5530E496E050E4A6E51C5DE
:100598004BF552C54CF509EC02F053C5F6F454C5B9
:1005A800F7F4F86A0800F5500009D8A4DEEF02F065
:1005B800E0EF02F0C3EF02F0000E4E6E000E4D6E3B
:1005C80012003550D8A4EBEF02F0EDEF02F0F1EF96
:1005D80002F02BEC03F008EF03F03504D8A4F7EF92
:1005E80002F0F9EF02F0FDEF02F056EC04F008EF2C
:1005F80003F0020E3518D8A404EF03F006EF03F059
:1006080008EF03F04AEC03F01200E1EC03F00501F7
:10061800626F0A0E6219D8B414EF03F016EF03F0F4
:100628002AEF03F00D0E6219D8B41DEF03F01FEF87
:1006380003F02AEF03F06251D8B425EF03F027EF57
:1006480003F02AEF03F06251C7EC01F0120095BEE7
:1006580030EF03F033EF03F0010E34EF03F0000E38
:10066800FF0A3C6E3C323C3295503C187F0B3C18DC
:10067800956E290E3D6E960E3C6E7F0EE82EFED7C7
:100688003C2EFCD73D2EFAD700F0120087B44FEF6E
:1006980003F051EF03F066EF03F0030E00EC04F0F3
:1006A800345000EC04F0342AFC0E00EC04F0190E6F
:1006B8003F6E5A0E3E6EB20EE82EFED73E2EFCD787
:1006C8003F2EFAD7120031503210D8B46EEF03F033
:1006D80070EF03F07CEF03F002D87CEF03F0050025
:1006E800FA6E3150FD6E3250FE6EFF6AFA501200FB
:1006F80012002F503010D8B484EF03F086EF03F0C7
:1007080092EF03F002D892EF03F00500FA6E2F5033
:10071800FD6E3050FE6EFF6AFA50120012002D5026
:100728002E10D8B49AEF03F09CEF03F0A8EF03F073
:1007380002D8A8EF03F00500FA6E2D50FD6E2E507A
:10074800FE6EFF6AFA5012001200000E3C6E0101A4
:10075800BEABB1EF03F0B3EF03F0BCEF03F0B9ABFE
:10076800B8EF03F0BAEF03F0BCEF03F0010E3C6EF4
:100778003C501200570E576E050E586E000E4D6E07
:10078800000E4E6E55C54FF556C550F5570E516EB5
:10079800050E526EBDEC02F01200600E00017A6F79
:1007A800400E7C6F000E7E6F080E806F000E7F6F0C
:1007B800000E816F000E826F120086EC04F00009B3
:1007C800D8B4E9EF03F0EBEF03F0EFEF03F0ADEC93
:1007D80004F0F0EF03F0000E120001EE01F1350E07
:1007E800EE6AE806FDE1080E666E000E676E000E02
:1007F800686E00011EEF04F03D6EA9EC03F00009DD
:10080800D8B409EF04F00BEF04F001EF04F03D5009
:10081800A9EC04F012003D6EA9EC03F00009D8B46D
:1008280018EF04F01AEF04F010EF04F03D50A9ECB3
:1008380004F0120091EC04F091EC04F057EC00F095
:1008480009EC03F0E5EC02F024EF04F055EF00F0BA
:100858003C503D10D8B433EF04F035EF04F039EFD5
:1008680004F03CC525F53DC526F512003C503D1069
:10087800D8B441EF04F043EF04F047EF04F03CC56F
:1008880027F53DC528F512003C503D10D8B44FEF70
:1008980004F051EF04F055EF04F03CC529F53DC5CF
:1008A8002AF5120087A45BEF04F05DEF04F060EF17
:1008B80004F0958E61EF04F0959E1200FAC436F5A7
:1008C800FBC437F5699267EC03F037C5FBF436C50E
:1008D800FAF41100FAC438F5FBC439F569947DECD3
:1008E80003F039C5FBF438C5FAF41100FAC43AF537
:1008F800FBC43BF5699693EC03F03BC5FBF43AC5A2
:10090800FAF411000101BEA38CEF04F08FEF04F09C
:10091800010E90EF04F0000E1200D1EC03F071EC20
:1009280001F04AEC02F088EC02F012003CC52DF50B
:100938003DC52EF512003CC52FF53DC530F512001A
:100948003CC531F53DC532F512003C6E3CC5B1F1F0
:0E09580012000101AF511200B5EC04F01100C5
:0A096800110012001200120012002C
:10F5380000940400005A0952090C095207000000FF
:10F5480000000000000000000000000000000000B3
:10F55800000000000000000000900874085808002F
:10F56800002A20202020202020204D4D4D4D4D4D9B
:10F578004D4D4D4E6D6468797979737373797968F7
:10F5880068646D4D4D4D4D4D4D4D4D4D4D202020D8
:10F598002020202020202020202020202020202063
:10F5A8002020202020202020202020202020202053
:10F5B8002020202020202020202020202020202043
:10F5C80020202020202020202A0D0A002A20202068
:10F5D80020202020204D4D4D4D6479737373737333
:10F5E80073737373737373737373737373737379DD
:10F5F8004E4D4D4D4D4D4D4D20202020202020209A
:10F6080020202020202020202020202020202020F2
:10F6180020202020202020202020202020202020E2
:10F6280020202020202020202020202020202020D2
:10F638002020202A0D0A002A2020202020202020F7
:10F648004D4D4D4D4D4D4E64797373737373737394
:10F658007373737373737373737379644E4D4D4D12
:10F668004D4D4D202020202020202020202020200B
:10F678002020202020202020202020202020202082
:10F688002020202020202020202020202020202072
:10F6980020202020202020202020202020202A0D6B
:10F6A8000A002A20202020202020204D4D6D79732B
:10F6B800737373736F2D602E6F73737373737373B8
:10F6C8006F2D2E2D6F73796D4D4D4D4D4D4D202065
:10F6D8002020202020202020202020202020202022
:10F6E8002020202020202020202020202020202012
:10F6F8002020202020202020202020202020202002
:10F708002020202020202020202A0D0A002A202026
:10F718002020202020204D4D4D4D4D4D4D4D4D4E1E
:10F7280064646879737979797973797968646D4DE6
:10F738004D4E4E4E4D4D4D4D4D2020202020202029
:10F7480020202020202020202020202020202020B1
:10F7580020202020202020202020202020202020A1
:10F768002020202020202020202020202020202091
:10F77800202020202A0D0A002A20202020202020B6
:10F78800204D4D4D4D4D4D6D687373737373737389
:10F7980073737373737373737373684D4E6D6D4DB9
:10F7A8004D4D4D4D2020202020202020202020209D
:10F7B8002020202020202020202020202020202041
:10F7C8002020202020202020202020202020202031
:10F7D8002020202020202020202020202020202A17
:10F7E8000D0A002A20202020202020204D4D4D4D9C
:10F7F80068797373737373737373737373737373D6
:10F8080073737373737373736F2B6D4D4D4D4D20FD
:10F8180020202020202020202020202020202020E0
:10F8280020202020202020202020202020202020D0
:10F8380020202020202020202020202020202020C0
:10F84800202020202020202020202A0D0A002A20E5
:10F85800202020202020204D4D6D3A202D6F7373DD
:10F868007373737373736F2D602E2B73737373734A
:10F8780073732B6020202B4E4D4D202020202020FC
:10F888002020202020202020202020202020202070
:10F898002020202020202020202020202020202060
:10F8A8002020202020202020202020202020202050
:10F8B80020202020202A0D0A002A20202020202075
:10F8C80020204D647373737373732F60202020603E
:10F8D8002F73737373733A20202020602B73736423
:10F8E8004D4D4D4D4D202020202020205F5F2020B1
:10F8F8005F5F205F20202020202020202020202043
:10F908002020202020202020205F20202020205F71
:10F9180020202020202020202020202020202020DF
:10F928002A0D0A002A20202020202020206D737311
:10F93800737373732F202020202020202D7373735E
:10F948002D202020202020202F7373794E4D4D4DDF
:10F958002020202020207C20205C2F2020285F29A8
:10F96800202020202020202020202020202020208F
:10F978002020207C207C202020285F292020202077
:10F9880020202020202020202020202A0D0A002AA4
:10F9980020202020202020206D60202020202020D2
:10F9A8002D6F7373732F202020202020202D737338
:10F9B8006F2D202020202020202F4D2020202020A7
:10F9C800202020202020202020202020202020202F
:10F9D800202020202020202020202020202020201F
:10F9E8002020202020207C207C2020202020202057
:10F9F8002020202020202A0D0A002A202020202034
:10FA08002020204D6860202020602F73737373734B
:10FA1800732B60202020203A73737373732F202078
:10FA28002020202D4E4D2020202020202020202066
:10FA380020202020202020202020202020202020BE
:10FA480020202020202020202020202020202020AE
:10FA5800207C5F7C202020202020202020202020A7
:10FA6800202A0D0A002A2020202020202020797317
:10FA78007373736F736F2D202020202020202E6F2A
:10FA8800736F2E202020202020202D7373796D4D38
:10FA98004D2020202020207C205C20202F207C5FEF
:10FAA80020205F5F5F205F205F5F205F5F5F202017
:10FAB800205F5F5F7C207C5F5F20205F205F205F8E
:10FAC8005F20202020202020202020202A0D0A002E
:10FAD8002A2020202020202020793A2020202020A1
:10FAE80020602B736F2D202020202020202E6F7364
:10FAF8002B60202020202020203A736820202020FE
:10FB080020207C5F7C20207C5F7C5F7C5C5F5F5F6B
:10FB18007C5F7C20205C5F5F5F2F205C5F5F5F7C89
:10FB28005F7C207C5F7C5F7C202E5F5F2F20202005
:10FB3800202020202020202A0D0A002A20202020F2
:10FB4800202020207973736F2D202D73732F602050
:10FB58002020202020602F73732D2020202020209B
:10FB6800202E6F7373644D2020202020207C207C61
:10FB78005C2F7C207C207C2F205F5F7C20275F5FB0
:10FB88002F205F205C202F205F5F7C20275F205C78
:10FB98007C207C20275F205C202020202020202023
:10FBA80020202A0D0A002A20202020202020207929
:10FBB800732B602020202E6F732B602020202020A4
:10FBC80020203A73732F60202020202020602F737C
:10FBD80073682020202020207C207C20207C207C12
:10FBE800207C20285F5F7C207C207C20285F2920C7
:10FBF8007C20285F5F7C207C207C207C207C207CF3
:10FC08005F29207C2020202020202020202A0D0A67
:10FC1800002A2020202020202020202020202020F2
:10FC280020202020202020202020202020202020CC
:10FC380020202020202020202020202020202020BC
:10FC480020202020202020202020202020202020AC
:10FC5800202020202020202020202020202020209C
:10FC6800202020202020202020202020202020208C
:10FC780020202020202020202A0A0D002A202027AA
:10FC88003127202D2044656661756C742070726F71
:10FC98006772616D3B20426C696E6B696E67204CC0
:10FCA8004544202020202020202020202020202003
:10FCB800202020202020202020202020202020203C
:10FCC800202020202020202020202020202020202C
:10FCD800202020202020202020202020202020201C
:10FCE8002020202A0A0D002A202D507265737320C7
:10FCF80061206B657920636F72726573706F6E64D3
:10FD0800696E6720746F20612070726F6772616D11
:10FD18003A202020202020202020202020202020C1
:10FD280020202020202020202020202020202020CB
:10FD380020202020202020202020202020202020BB
:10FD480020202020202020202020202020202A0AB7
:10FD58000D002A2020273227202D204C45442074CE
:10FD680075726E73206F6E207768696C6520627596
:10FD780074746F6E20697320707265737365642084
:10FD8800202020202020202020202020202020206B
:10FD9800202020202020202020202020202020205B
:10FDA800202020202020202020202020202020204B
:10FDB8002020202020202020202A0A0D002A202D63
:10FDC800507265737320616E79206F746865722054
:10FDD8006B657920746F2076696577207468652073
:10FDE8006D656E7520616761696E2E202020202068
:10FDF80020202020202020202020202020202020FB
:10FE080020202020202020202020202020202020EA
:10FE180020202020202020202020202020202020DA
:10FE2800202020202A0A0D002A20202020202020FF
:10FE380020202020202020202020202020202020BA
:10FE48004F7574206F662074686520626F78206132
:10FE580070706C69636174696F6E20666F72205090
:10FE68004943313846313651323020437572696F13
:10FE780073697479204E616E6F2020202020202025
:10FE88002020202020202020202020202020202A60
:10FE98000A0D002A2020273327202D20416E2061BB
:10FEA8007363656E64696E672072616D7020766930
:10FEB8007369626C6520696E204D504C4142204444
:10FEC8006174612056697375616C697A6572207313
:10FED800656E74207468726F756768205541525456
:10FEE800207768696C6520627574746F6E20697319
:10FEF800207072657373656420202A0A0D002A2A0F
:10FF08002A2A2A2A2A2A2A2A2A2A2A2A2A2A2A2A49
:10FF18002A2A2A2A2A2A2A2A2A2A2A2A2A2A2A2A39
:10FF28002A2A2A2A2A2A2A2A2A2A2A2A2A2A2A2A29
:10FF38002A2A2A2A2A2A2A2A2A2A2A2A2A2A2A2A19
:10FF48002A2A2A2A2A2A2A2A2A2A2A2A2A2A2A2A09
:10FF58002A2A2A2A2A2A2A2A2A2A2A2A2A2A2A2AF9
:10FF68002A2A2A2A2A2A0A0D0050726F6772616D9E
:10FF7800206368616E67656420746F2070726573B2
:10FF88007320627574746F6E20746F2073656E646D
:10FF980020612072616D70207468726F75676820C7
:10FFA800554152540D0A0050726F6772616D20639B
:10FFB80068616E67656420746F2070726573732062
:10FFC800627574746F6E20746F207475726E206F12
:10FFD8006E204C45440D0A0050726F6772616D20A7
:10FFE8006368616E67656420746F20626C696E6B0C
:08FFF800204C45440D0A0000F5
:020000040030CA
:0B000000FFFFFFFF9FFFFF7FFFFFFFE0
:02001800FFFFE8
:00000001FF
